:03000000020DF0FE
:0C0DF000787FE4F6D8FD758179020E379B
:10136A001213AE1212B41212E4120E7C1211DD1212
:04137A00118980FE57
:031314000179005C
:0F138F00758920758DFD75985075A8A0D28E2296
:08139E008F993099FDC29922DC
:0813A6003098FDC298AF9922B6
:10137E00000000000000000000000000000000005F
:01138E00005E
:04131700026739210F
:061341008B088A09890AED
:10134700E4F50BF50BAB08AA09A90AAF0BEF339528
:10135700E08F82F5831208F6FF600712139E050BD4
:0213670080E321
:011369002261
:061002008B088A09890A2F
:10100800780B7C007D007BFF7A13797E7E007F075A
:101018001208D0E4F512F513751401FF8013EF647C
:101028000D601374D02FFFAE120512740B2EF8A6A4
:10103800071213A680E81512C3E512648094804055
:1010480032AF121512740B2FF8E6FF3395E0FEACA1
:1010580013AD14120923AB08AA09A90AEE8FF012DE
:10106800098AAE13AF147C007D0A1209238E138FF0
:031078001480C51C
:01107B002252
:080F04008F0B8E0A8D098C0889
:100F0C00E4F50C780D7C00FD7BFF7A137985FE7F70
:100F1C000A1208D0E4FFFEFDFCAB0BAA0AA909A833
:100F2C0008D3120ADF403AE47B0AFAF9F8AF0BAEA9
:100F3C000AAD09AC08120A4DEB2430FFAE0C050CBF
:100F4C00740D2EF8A607AF0BAE0AAD09AC08E47B06
:100F5C000AFAF9F8120A4D8F0B8E0A8D098C08804B
:100F6C00B3C3E50C64809480400E740D250CF8E638
:080F7C00FF12139E150C80E921
:010F8400224A
:081135008F1F8E1E8D1D8C1C06
:10113D00E4F520F521E4FFFEFDFCAB1FAA1EA91D61
:10114D00A81CD3120ADF402FE51F5401FF74692537
:10115D0021F8A607AF1FAE1EAD1DAC1CE47B02FA35
:10116D00F9F8120A4D8F1F8E1E8D1D8C1C0521E561
:0B117D002170C2052080BEE52114FF98
:011188002244
:040D2C008E0D8F0E8B
:100D3000EE3395E08F1A8E19F518F517E4F51BAF11
:100D400012AE11AD10AC0F121135EF14F51BC3E547
:100D50001B648094805003020DE77469251BF8E63C
:100D60007012AF1AAE19AD18AC17A804A905AA06DF
:100D7000AB078040AF1AAE19AD18AC17A804A9058F
:100D8000AA06AB071209C28F1A8E198D188C17ABE1
:100D900016AA15A914A813120A4DAC00AD01AE0293
:100DA000AF038F1A8E198D188C17AE0DAF0EEE3360
:100DB00095E0FDFC1209C28F1A8E198D188C17AFA1
:100DC0001AAE19AD18AC17AB16AA15A914A81312B0
:100DD0000A4DAC00AD01AE02AF038F1A8E198D180B
:0F0DE0008C17151B020D4EAF1AAE19AD18AC17BC
:010DEF0022E1
:04127300AB07AA0615
:10127700750D66750E0D907890800DC3E568940224
:10128700E567648094805020AC0DAD0EAE67AF6803
:10129700120923EF2582FFEE3583FEAD03AC021260
:0C12A70009358C678D6880D3AE67AF6896
:0112B3002218
:0410DC008E088F09E2
:1010E000E4F50AF50BF50CF50CE50924FEFFE5081F
:1010F00034FFFE1212738E0A8F0BE50924FFFFE501
:101100000834FFFEE48F128E11F510F50F850916D5
:10111000850815F514F513AF0BAE0A120D2CEF640C
:10112000014E60037F0122050CC3E50C64809485A9
:0411300040B77F0045
:011134002298
:080F85008F138E128D118C10E8
:100F8D00E4F519F518F517F516AE14AF15EE339502
:100F9D00E0FDFCAB13AA12A911A810C3120ADF7051
:100FAD0003FEFF22D3E5159400E514648094804080
:100FBD003FAE14AF15AB07AA06EA3395E0F9F8AFCB
:100FCD0013AE12AD11AC10120A4DAC00AD01AE0254
:100FDD00AF038F198E188D178C16AE14EE3395E066
:100FED008515138E12F511F5108518148F1580B413
:040FFD00AE12AF136E
:0110010022CC
:08107C008F0B8E0A8D098C0810
:10108400E4F50FF50EF50DF50C750F03F50EF50DE2
:10109400F50CAF0BAE0AAD09AC08AB0FAA0EA90D47
:1010A400A80CC3120ADF502FAF0BAE0AAD09AC086F
:1010B4008A148B15120F85EF64014E7003AF0F2253
:1010C400E50F2402F50FE4350EF50EE4350DF50DAC
:0710D400E4350CF50C80BBB4
:0110DB0022F2
:040B1E008E088F09A5
:100B2200E4F511F510F50FF50E850D15850C1485FC
:100B32000B13850A12F520F521F54DF54CF54BF511
:100B42004A755101F550F54FF54ED3E5099401E58B
:100B520008648094804065AE08AF09AB07AA06EA34
:100B62003395E0F9F8AF0DAE0CAD0BAC0A12122FB3
:100B7200AF0374162521F8A607AE08AF09AB07AA82
:100B820006EA3395E0F9F8AF0DAE0CAD0BAC0A12E4
:100B9200122FE52125E025E02422F8120AFCAE08F6
:100BA200EE3395E085090D8E0CF50BF50A741625CA
:100BB20021F8E6750800F5090521808EE4F520E5A7
:100BC20020C39521504DE52025E025E02422F8128E
:100BD2000AF0AB51AA50A94FA84E1209C2A804A903
:100BE20005AA06C3E54D9FF511E54C9AF510E54BB4
:100BF20099F50FE54A98F50E85514D85504C854F74
:100C02004B854E4A851151851050850F4FF54E0583
:100C12002080ACAC0EEC33501AE5112515F511E528
:100C2200103514F510E50F3513F50FE50E3512F5F5
:100C32000E8023AF11AE10AD0FAC0EAB15AA14A9E6
:100C420013A81212122FAC00AD01AE02AF038F1126
:0E0C52008E108D0F8C0EAF11AE10AD0FAC0ECC
:010C60002271
:100C6100506C6561736520456E74657220466972CA
:100C71007374205072696D65204E756D62657220C6
:100C81003A0054484953204953204E4F5420505262
:100C9100494D45205245454E544552205052494DEB
:100CA10045204F4E45203A00506C656173652045E3
:100CB1006E746572205365636F6E64205072696D46
:100CC10065204E756D626572203A00596F7572200C
:100CD1004275626C6963204B4559203A20280045D2
:100CE1004E54455220504C41494E205445585420B1
:100CF1003A00594F555220434950484552205445D6
:100D01005854203A00454E544552204349504845D5
:100D1100522054455854203A00594F555220504CB6
:0B0D210041494E2054455854203A0030
:10131B000263000002650000045F0000000004523D
:10132B0000000000015E00045A000000000258009B
:05133B00000256000055
:0313AE0002138F98
:1012B4007BFF7A0C79611213417B008012BF011FFE
:1012C4007BFF7A0C7983121341E4F563F564FB7AAE
:0F12D400007963121002AF64AE631210DC80DE8B
:0112E30022E8
:1012E4007BFF7A0C79A91213417B008012BF011F86
:1012F4007BFF7A0C7983121341E4F565F566FB7A7A
:0F130400007965121002AF66AE651210DC80DE54
:0113130022B7
:100E7C00AC65AD66AE63AF64120923EE3395E08FBB
:100E8C00628E61F560F55FE56624FFFDE56534FF74
:100E9C00FCE56424FFFFE56334FFFE120923EE3307
:100EAC0095E08F558E54F553F552FDAC5212107CD3
:100EBC008F5EEF3395E0FE85550D85540C85530BF5
:100ECC0085520A120B1E8F5D8E5C8D5B8C5A7BFFDC
:100EDC007A0C79CC121341AF62AE61AD60AC5F128B
:100EEC000F047F2C12139EAF5EEF3395E0FEFDFCDA
:080EFC00120F047F2902139E6E
:1011DD007F0D12139E7BFF7A0C79E01213417B0079
:1011ED007A007958121002AF5EEF3395E08F12F549
:1011FD0011F510F50F856216856115856014855FF3
:10120D0013AF59AE58120D2C8E568F577BFF7A0C9B
:10121D0079F3121341AE56AF57EE3395E0FDFC0254
:02122D000F04AC
:101189007F0D12139E7BFF7A0D7906121341E4F548
:1011990056F557FB7A007956121002855D12855C67
:1011A90011855B10855A0F85621685611585601456
:1011B900855F13AF57AE56120D2C8E588F597BFF92
:1011C9007A0D791A121341AE58AF59EE3395E0FDF5
:0411D900FC020F0401
:100DFC0002136AE493A3F8E493A34003F68001F290
:100E0C0008DFF48029E493A3F85407240CC8C333F7
:100E1C00C4540F4420C8834004F456800146F6DFC6
:100E2C00E4800B0102040810204080901314E47E2F
:100E3C00019360BCA3FF543F30E509541FFEE493BB
:100E4C00A360010ECF54C025E060A840B8E493A382
:100E5C00FAE493A3F8E493A3C8C582C8CAC583CAAD
:100E6C00F0A3C8C582C8CAC583CADFE9DEE780BE65
:0113400000AC
:10080000E709F608DFFA8046E709F208DFFA803EDA
:1008100088828C83E709F0A3DFFA8032E309F608C7
:10082000DFFA8078E309F208DFFA807088828C832F
:10083000E309F0A3DFFA806489828A83E0A3F608E3
:10084000DFFA805889828A83E0A3F208DFFA804CBD
:1008500080D280FA80C680D4806980F28033801094
:1008600080A680EA809A80A880DA80E280CA8033FD
:1008700089828A83ECFAE493A3C8C582C8CCC58375
:10088000CCF0A3C8C582C8CCC583CCDFE9DEE78045
:100890000D89828A83E493A3F608DFF9ECFAA9F0C4
:1008A000EDFB2289828A83ECFAE0A3C8C582C8CC1A
:1008B000C583CCF0A3C8C582C8CCC583CCDFEADE33
:1008C000E880DB89828A83E493A3F208DFF980CC95
:1008D00088F0EF60010E4E60C388F0ED2402B4048E
:1008E0000050B9F582EB2402B4040050AF23234535
:0608F00082239008507302
:1008F600BB010CE58229F582E5833AF583E02250B7
:1009060006E92582F8E622BBFE06E92582F8E22200
:0D091600E58229F582E5833AF583E493221A
:10092300EF8DF0A4A8F0CF8CF0A428CE8DF0A42EE8
:02093300FE22A2
:10093500BC000BBE0029EF8DF084FFADF022E4CCA6
:10094500F875F008EF2FFFEE33FEEC33FCEE9DEC6F
:10095500984005FCEE9DFE0FD5F0E9E4CEFD22EDB5
:10096500F8F5F0EE8420D21CFEADF075F008EF2FFF
:10097500FFED33FD4007985006D5F0F222C398FDF0
:050985000FD5F0EA228D
:10098A00BB010789828A83020B08500B09C5F0272D
:10099A00F7C5F01937F722BBFE0D09F8E325F0F386
:1009AA00C5F019E338F322F889828A837401932502
:0809BA00F0C5F0F8E4933822C7
:1009C200E88FF0A4CC8BF0A42CFCE98EF0A42CFCD4
:1009D2008AF0EDA42CFCEA8EF0A4CDA8F08BF0A452
:1009E2002DCC3825F0FDE98FF0A42CCD35F0FCEBB1
:1009F2008EF0A4FEA9F0EB8FF0A4CFC5F02ECD3976
:0F0A0200FEE43CFCEAA42DCE35F0FDE43CFC22E2
:100A110075F008758200EF2FFFEE33FECD33CDCC9C
:100A210033CCC58233C5829BED9AEC99E58298401F
:100A31000CF582EE9BFEED9AFDEC99FC0FD5F0D6FC
:100A4100E4CEFBE4CDFAE4CCF9A88222B800C1B926
:100A51000059BA002DEC8BF084CFCECDFCE5F0CB64
:100A6100F97818EF2FFFEE33FEED33FDEC33FCEB9D
:100A710033FB10D703994004EB99FB0FD8E5E4F958
:100A8100FA227818EF2FFFEE33FEED33FDEC33FC45
:100A9100C933C910D7059BE99A4007EC9BFCE99A39
:100AA100F90FD8E0E4C9FAE4CCFB2275F010EF2F7E
:100AB100FFEE33FEED33FDCC33CCC833C810D7077E
:100AC1009BEC9AE899400AED9BFDEC9AFCE899F8B9
:0E0AD1000FD5F0DAE4CDFBE4CCFAE4C8F9224C
:10122F00C2D5E830E70FB2D5E4C39BFBE49AFAE4EA
:10123F0099F9E498F8EC30E717B2D5121265120A53
:10124F004DE4C39BFBE49AFAE499F9E498F8800320
:10125F00120A4D30D50DE4C39FFFE49EFEE49DFDC1
:04126F00E49CFC22DD
:100ADF00EB9FF5F0EA9E42F0E99D42F0E89C45F06D
:010AEF0022E4
:0C0AF000E6FC08E6FD08E6FE08E6FF2232
:0C0AFC00ECF608EDF608EEF608EFF62226
:100B0800C5F0F8A3E028F0C5F0F8E5821582700278
:060B18001583E038F02215
:00000001FF
